{
  "_format": "hh-sol-artifact-1",
  "contractName": "TenantReview",
  "sourceName": "contracts/TenantReview.sol",
  "abi": [
    {
      "anonymous": false,
      "inputs": [
        {
          "indexed": true,
          "internalType": "address",
          "name": "tenant",
          "type": "address"
        },
        {
          "indexed": true,
          "internalType": "address",
          "name": "reviewer",
          "type": "address"
        },
        {
          "indexed": false,
          "internalType": "uint256",
          "name": "rating",
          "type": "uint256"
        }
      ],
      "name": "ReviewAdded",
      "type": "event"
    },
    {
      "inputs": [
        {
          "internalType": "address",
          "name": "rentalContractAddress",
          "type": "address"
        },
        {
          "internalType": "uint256",
          "name": "rating",
          "type": "uint256"
        },
        {
          "internalType": "string",
          "name": "comments",
          "type": "string"
        }
      ],
      "name": "addReview",
      "outputs": [],
      "stateMutability": "nonpayable",
      "type": "function"
    },
    {
      "inputs": [
        {
          "internalType": "address",
          "name": "tenant",
          "type": "address"
        }
      ],
      "name": "getAverageRating",
      "outputs": [
        {
          "internalType": "uint256",
          "name": "",
          "type": "uint256"
        }
      ],
      "stateMutability": "view",
      "type": "function"
    },
    {
      "inputs": [
        {
          "internalType": "address",
          "name": "tenant",
          "type": "address"
        }
      ],
      "name": "getReviewCount",
      "outputs": [
        {
          "internalType": "uint256",
          "name": "",
          "type": "uint256"
        }
      ],
      "stateMutability": "view",
      "type": "function"
    },
    {
      "inputs": [
        {
          "internalType": "address",
          "name": "tenant",
          "type": "address"
        },
        {
          "internalType": "uint256",
          "name": "index",
          "type": "uint256"
        }
      ],
      "name": "getTenantReviewByIndex",
      "outputs": [
        {
          "internalType": "address",
          "name": "reviewer",
          "type": "address"
        },
        {
          "internalType": "uint256",
          "name": "rating",
          "type": "uint256"
        },
        {
          "internalType": "string",
          "name": "comments",
          "type": "string"
        },
        {
          "internalType": "uint256",
          "name": "timestamp",
          "type": "uint256"
        },
        {
          "internalType": "address",
          "name": "rentalContract",
          "type": "address"
        }
      ],
      "stateMutability": "view",
      "type": "function"
    },
    {
      "inputs": [
        {
          "internalType": "address",
          "name": "tenant",
          "type": "address"
        }
      ],
      "name": "getTenantReviews",
      "outputs": [
        {
          "internalType": "address[]",
          "name": "reviewers",
          "type": "address[]"
        },
        {
          "internalType": "uint256[]",
          "name": "ratings",
          "type": "uint256[]"
        },
        {
          "internalType": "string[]",
          "name": "commentsList",
          "type": "string[]"
        },
        {
          "internalType": "uint256[]",
          "name": "timestamps",
          "type": "uint256[]"
        },
        {
          "internalType": "address[]",
          "name": "rentalContracts",
          "type": "address[]"
        }
      ],
      "stateMutability": "view",
      "type": "function"
    },
    {
      "inputs": [
        {
          "internalType": "address",
          "name": "",
          "type": "address"
        },
        {
          "internalType": "uint256",
          "name": "",
          "type": "uint256"
        }
      ],
      "name": "tenantReviews",
      "outputs": [
        {
          "internalType": "address",
          "name": "reviewer",
          "type": "address"
        },
        {
          "internalType": "address",
          "name": "tenant",
          "type": "address"
        },
        {
          "internalType": "uint256",
          "name": "rating",
          "type": "uint256"
        },
        {
          "internalType": "string",
          "name": "comments",
          "type": "string"
        },
        {
          "internalType": "uint256",
          "name": "timestamp",
          "type": "uint256"
        },
        {
          "internalType": "address",
          "name": "rentalContract",
          "type": "address"
        }
      ],
      "stateMutability": "view",
      "type": "function"
    }
  ],
  "bytecode": "0x6080604052348015600f57600080fd5b50611f508061001f6000396000f3fe608060405234801561001057600080fd5b50600436106100625760003560e01c806345e3daf9146100675780636ec78fc61461009b5780638621e994146100cb578063aed6138214610100578063b484f2801461011c578063c8b6752214610150575b600080fd5b610081600480360381019061007c9190611195565b610180565b60405161009295949392919061149a565b60405180910390f35b6100b560048036038101906100b09190611195565b6105ea565b6040516100c2919061151f565b60405180910390f35b6100e560048036038101906100e09190611566565b610635565b6040516100f7969594939291906115ff565b60405180910390f35b61011a6004803603810190610115919061179c565b610776565b005b61013660048036038101906101319190611566565b610c8b565b60405161014795949392919061180b565b60405180910390f35b61016a60048036038101906101659190611195565b610e71565b604051610177919061151f565b60405180910390f35b606080606080606060008060008873ffffffffffffffffffffffffffffffffffffffff1673ffffffffffffffffffffffffffffffffffffffff16815260200190815260200160002090506000818054905090508067ffffffffffffffff8111156101ed576101ec611671565b5b60405190808252806020026020018201604052801561021b5781602001602082028036833780820191505090505b5096508067ffffffffffffffff81111561023857610237611671565b5b6040519080825280602002602001820160405280156102665781602001602082028036833780820191505090505b5095508067ffffffffffffffff81111561028357610282611671565b5b6040519080825280602002602001820160405280156102b657816020015b60608152602001906001900390816102a15790505b5094508067ffffffffffffffff8111156102d3576102d2611671565b5b6040519080825280602002602001820160405280156103015781602001602082028036833780820191505090505b5093508067ffffffffffffffff81111561031e5761031d611671565b5b60405190808252806020026020018201604052801561034c5781602001602082028036833780820191505090505b50925060005b818110156105de5782818154811061036d5761036c611865565b5b906000526020600020906006020160000160009054906101000a900473ffffffffffffffffffffffffffffffffffffffff168882815181106103b2576103b1611865565b5b602002602001019073ffffffffffffffffffffffffffffffffffffffff16908173ffffffffffffffffffffffffffffffffffffffff16815250508281815481106103ff576103fe611865565b5b90600052602060002090600602016002015487828151811061042457610423611865565b5b60200260200101818152505082818154811061044357610442611865565b5b9060005260206000209060060201600301805461045f906118c3565b80601f016020809104026020016040519081016040528092919081815260200182805461048b906118c3565b80156104d85780601f106104ad576101008083540402835291602001916104d8565b820191906000526020600020905b8154815290600101906020018083116104bb57829003601f168201915b50505050508682815181106104f0576104ef611865565b5b602002602001018190525082818154811061050e5761050d611865565b5b90600052602060002090600602016004015485828151811061053357610532611865565b5b60200260200101818152505082818154811061055257610551611865565b5b906000526020600020906006020160050160009054906101000a900473ffffffffffffffffffffffffffffffffffffffff1684828151811061059757610596611865565b5b602002602001019073ffffffffffffffffffffffffffffffffffffffff16908173ffffffffffffffffffffffffffffffffffffffff16815250508080600101915050610352565b50505091939590929450565b60008060008373ffffffffffffffffffffffffffffffffffffffff1673ffffffffffffffffffffffffffffffffffffffff168152602001908152602001600020805490509050919050565b6000602052816000526040600020818154811061065157600080fd5b9060005260206000209060060201600091509150508060000160009054906101000a900473ffffffffffffffffffffffffffffffffffffffff16908060010160009054906101000a900473ffffffffffffffffffffffffffffffffffffffff16908060020154908060030180546106c7906118c3565b80601f01602080910402602001604051908101604052809291908181526020018280546106f3906118c3565b80156107405780601f1061071557610100808354040283529160200191610740565b820191906000526020600020905b81548152906001019060200180831161072357829003601f168201915b5050505050908060040154908060050160009054906101000a900473ffffffffffffffffffffffffffffffffffffffff16905086565b60008390508073ffffffffffffffffffffffffffffffffffffffff1663dc1997ea6040518163ffffffff1660e01b8152600401602060405180830381865afa1580156107c6573d6000803e3d6000fd5b505050506040513d601f19601f820116820180604052508101906107ea9190611909565b73ffffffffffffffffffffffffffffffffffffffff163373ffffffffffffffffffffffffffffffffffffffff1614610857576040517f08c379a000000000000000000000000000000000000000000000000000000000815260040161084e906119a8565b60405180910390fd5b8073ffffffffffffffffffffffffffffffffffffffff166322f3e2d46040518163ffffffff1660e01b8152600401602060405180830381865afa1580156108a2573d6000803e3d6000fd5b505050506040513d601f19601f820116820180604052508101906108c69190611a00565b158061093f57508073ffffffffffffffffffffffffffffffffffffffff1663c24a0f8b6040518163ffffffff1660e01b8152600401602060405180830381865afa158015610918573d6000803e3d6000fd5b505050506040513d601f19601f8201168201806040525081019061093c9190611a42565b42115b61097e576040517f08c379a000000000000000000000000000000000000000000000000000000000815260040161097590611ae1565b60405180910390fd5b60018310158015610990575060058311155b6109cf576040517f08c379a00000000000000000000000000000000000000000000000000000000081526004016109c690611b4d565b60405180910390fd5b60008173ffffffffffffffffffffffffffffffffffffffff1663adf077916040518163ffffffff1660e01b8152600401602060405180830381865afa158015610a1c573d6000803e3d6000fd5b505050506040513d601f19601f82011682018060405250810190610a409190611909565b905060006040518060c001604052803373ffffffffffffffffffffffffffffffffffffffff1681526020018373ffffffffffffffffffffffffffffffffffffffff1681526020018681526020018581526020014281526020018773ffffffffffffffffffffffffffffffffffffffff1681525090506000808373ffffffffffffffffffffffffffffffffffffffff1673ffffffffffffffffffffffffffffffffffffffff16815260200190815260200160002081908060018154018082558091505060019003906000526020600020906006020160009091909190915060008201518160000160006101000a81548173ffffffffffffffffffffffffffffffffffffffff021916908373ffffffffffffffffffffffffffffffffffffffff16021790555060208201518160010160006101000a81548173ffffffffffffffffffffffffffffffffffffffff021916908373ffffffffffffffffffffffffffffffffffffffff160217905550604082015181600201556060820151816003019081610bca9190611d19565b506080820151816004015560a08201518160050160006101000a81548173ffffffffffffffffffffffffffffffffffffffff021916908373ffffffffffffffffffffffffffffffffffffffff16021790555050503373ffffffffffffffffffffffffffffffffffffffff168273ffffffffffffffffffffffffffffffffffffffff167fa4d3fa20e3766f0da095473fcbd09a36312b9241aaca0b5a6924290a9c9add9587604051610c7b919061151f565b60405180910390a3505050505050565b60008060606000806000808873ffffffffffffffffffffffffffffffffffffffff1673ffffffffffffffffffffffffffffffffffffffff168152602001908152602001600020805490508610610d16576040517f08c379a0000000000000000000000000000000000000000000000000000000008152600401610d0d90611e37565b60405180910390fd5b60008060008973ffffffffffffffffffffffffffffffffffffffff1673ffffffffffffffffffffffffffffffffffffffff1681526020019081526020016000208781548110610d6857610d67611865565b5b906000526020600020906006020190508060000160009054906101000a900473ffffffffffffffffffffffffffffffffffffffff1681600201548260030183600401548460050160009054906101000a900473ffffffffffffffffffffffffffffffffffffffff16828054610ddc906118c3565b80601f0160208091040260200160405190810160405280929190818152602001828054610e08906118c3565b8015610e555780601f10610e2a57610100808354040283529160200191610e55565b820191906000526020600020905b815481529060010190602001808311610e3857829003601f168201915b5050505050925095509550955095509550509295509295909350565b6000806000808473ffffffffffffffffffffffffffffffffffffffff1673ffffffffffffffffffffffffffffffffffffffff168152602001908152602001600020805480602002602001604051908101604052809291908181526020016000905b828210156110ac57838290600052602060002090600602016040518060c00160405290816000820160009054906101000a900473ffffffffffffffffffffffffffffffffffffffff1673ffffffffffffffffffffffffffffffffffffffff1673ffffffffffffffffffffffffffffffffffffffff1681526020016001820160009054906101000a900473ffffffffffffffffffffffffffffffffffffffff1673ffffffffffffffffffffffffffffffffffffffff1673ffffffffffffffffffffffffffffffffffffffff16815260200160028201548152602001600382018054610fbb906118c3565b80601f0160208091040260200160405190810160405280929190818152602001828054610fe7906118c3565b80156110345780601f1061100957610100808354040283529160200191611034565b820191906000526020600020905b81548152906001019060200180831161101757829003601f168201915b50505050508152602001600482015481526020016005820160009054906101000a900473ffffffffffffffffffffffffffffffffffffffff1673ffffffffffffffffffffffffffffffffffffffff1673ffffffffffffffffffffffffffffffffffffffff168152505081526020019060010190610ed2565b50505050905060008151036110c557600091505061111e565b6000805b825181101561110b578281815181106110e5576110e4611865565b5b602002602001015160400151826110fc9190611e86565b915080806001019150506110c9565b508151816111199190611ee9565b925050505b919050565b6000604051905090565b600080fd5b600080fd5b600073ffffffffffffffffffffffffffffffffffffffff82169050919050565b600061116282611137565b9050919050565b61117281611157565b811461117d57600080fd5b50565b60008135905061118f81611169565b92915050565b6000602082840312156111ab576111aa61112d565b5b60006111b984828501611180565b91505092915050565b600081519050919050565b600082825260208201905092915050565b6000819050602082019050919050565b6111f781611157565b82525050565b600061120983836111ee565b60208301905092915050565b6000602082019050919050565b600061122d826111c2565b61123781856111cd565b9350611242836111de565b8060005b8381101561127357815161125a88826111fd565b975061126583611215565b925050600181019050611246565b5085935050505092915050565b600081519050919050565b600082825260208201905092915050565b6000819050602082019050919050565b6000819050919050565b6112bf816112ac565b82525050565b60006112d183836112b6565b60208301905092915050565b6000602082019050919050565b60006112f582611280565b6112ff818561128b565b935061130a8361129c565b8060005b8381101561133b57815161132288826112c5565b975061132d836112dd565b92505060018101905061130e565b5085935050505092915050565b600081519050919050565b600082825260208201905092915050565b6000819050602082019050919050565b600081519050919050565b600082825260208201905092915050565b60005b838110156113ae578082015181840152602081019050611393565b60008484015250505050565b6000601f19601f8301169050919050565b60006113d682611374565b6113e0818561137f565b93506113f0818560208601611390565b6113f9816113ba565b840191505092915050565b600061141083836113cb565b905092915050565b6000602082019050919050565b600061143082611348565b61143a8185611353565b93508360208202850161144c85611364565b8060005b8581101561148857848403895281516114698582611404565b945061147483611418565b925060208a01995050600181019050611450565b50829750879550505050505092915050565b600060a08201905081810360008301526114b48188611222565b905081810360208301526114c881876112ea565b905081810360408301526114dc8186611425565b905081810360608301526114f081856112ea565b905081810360808301526115048184611222565b90509695505050505050565b611519816112ac565b82525050565b60006020820190506115346000830184611510565b92915050565b611543816112ac565b811461154e57600080fd5b50565b6000813590506115608161153a565b92915050565b6000806040838503121561157d5761157c61112d565b5b600061158b85828601611180565b925050602061159c85828601611551565b9150509250929050565b6115af81611157565b82525050565b600082825260208201905092915050565b60006115d182611374565b6115db81856115b5565b93506115eb818560208601611390565b6115f4816113ba565b840191505092915050565b600060c08201905061161460008301896115a6565b61162160208301886115a6565b61162e6040830187611510565b818103606083015261164081866115c6565b905061164f6080830185611510565b61165c60a08301846115a6565b979650505050505050565b600080fd5b600080fd5b7f4e487b7100000000000000000000000000000000000000000000000000000000600052604160045260246000fd5b6116a9826113ba565b810181811067ffffffffffffffff821117156116c8576116c7611671565b5b80604052505050565b60006116db611123565b90506116e782826116a0565b919050565b600067ffffffffffffffff82111561170757611706611671565b5b611710826113ba565b9050602081019050919050565b82818337600083830152505050565b600061173f61173a846116ec565b6116d1565b90508281526020810184848401111561175b5761175a61166c565b5b61176684828561171d565b509392505050565b600082601f83011261178357611782611667565b5b813561179384826020860161172c565b91505092915050565b6000806000606084860312156117b5576117b461112d565b5b60006117c386828701611180565b93505060206117d486828701611551565b925050604084013567ffffffffffffffff8111156117f5576117f4611132565b5b6118018682870161176e565b9150509250925092565b600060a08201905061182060008301886115a6565b61182d6020830187611510565b818103604083015261183f81866115c6565b905061184e6060830185611510565b61185b60808301846115a6565b9695505050505050565b7f4e487b7100000000000000000000000000000000000000000000000000000000600052603260045260246000fd5b7f4e487b7100000000000000000000000000000000000000000000000000000000600052602260045260246000fd5b600060028204905060018216806118db57607f821691505b6020821081036118ee576118ed611894565b5b50919050565b60008151905061190381611169565b92915050565b60006020828403121561191f5761191e61112d565b5b600061192d848285016118f4565b91505092915050565b7f4f6e6c7920746865206c616e646c6f72642063616e206c65617665206120726560008201527f7669657700000000000000000000000000000000000000000000000000000000602082015250565b60006119926024836115b5565b915061199d82611936565b604082019050919050565b600060208201905081810360008301526119c181611985565b9050919050565b60008115159050919050565b6119dd816119c8565b81146119e857600080fd5b50565b6000815190506119fa816119d4565b92915050565b600060208284031215611a1657611a1561112d565b5b6000611a24848285016119eb565b91505092915050565b600081519050611a3c8161153a565b92915050565b600060208284031215611a5857611a5761112d565b5b6000611a6684828501611a2d565b91505092915050565b7f43616e206f6e6c79207265766965772061667465722072656e74616c2070657260008201527f696f6420656e6473000000000000000000000000000000000000000000000000602082015250565b6000611acb6028836115b5565b9150611ad682611a6f565b604082019050919050565b60006020820190508181036000830152611afa81611abe565b9050919050565b7f526174696e67206d757374206265206265747765656e203120616e6420350000600082015250565b6000611b37601e836115b5565b9150611b4282611b01565b602082019050919050565b60006020820190508181036000830152611b6681611b2a565b9050919050565b60008190508160005260206000209050919050565b60006020601f8301049050919050565b600082821b905092915050565b600060088302611bcf7fffffffffffffffffffffffffffffffffffffffffffffffffffffffffffffffff82611b92565b611bd98683611b92565b95508019841693508086168417925050509392505050565b6000819050919050565b6000611c16611c11611c0c846112ac565b611bf1565b6112ac565b9050919050565b6000819050919050565b611c3083611bfb565b611c44611c3c82611c1d565b848454611b9f565b825550505050565b600090565b611c59611c4c565b611c64818484611c27565b505050565b5b81811015611c8857611c7d600082611c51565b600181019050611c6a565b5050565b601f821115611ccd57611c9e81611b6d565b611ca784611b82565b81016020851015611cb6578190505b611cca611cc285611b82565b830182611c69565b50505b505050565b600082821c905092915050565b6000611cf060001984600802611cd2565b1980831691505092915050565b6000611d098383611cdf565b9150826002028217905092915050565b611d2282611374565b67ffffffffffffffff811115611d3b57611d3a611671565b5b611d4582546118c3565b611d50828285611c8c565b600060209050601f831160018114611d835760008415611d71578287015190505b611d7b8582611cfd565b865550611de3565b601f198416611d9186611b6d565b60005b82811015611db957848901518255600182019150602085019450602081019050611d94565b86831015611dd65784890151611dd2601f891682611cdf565b8355505b6001600288020188555050505b505050505050565b7f52657669657720696e646578206f7574206f6620626f756e6473000000000000600082015250565b6000611e21601a836115b5565b9150611e2c82611deb565b602082019050919050565b60006020820190508181036000830152611e5081611e14565b9050919050565b7f4e487b7100000000000000000000000000000000000000000000000000000000600052601160045260246000fd5b6000611e91826112ac565b9150611e9c836112ac565b9250828201905080821115611eb457611eb3611e57565b5b92915050565b7f4e487b7100000000000000000000000000000000000000000000000000000000600052601260045260246000fd5b6000611ef4826112ac565b9150611eff836112ac565b925082611f0f57611f0e611eba565b5b82820490509291505056fea26469706673582212207a810fa8ae5ce48be858dd8fb69e0e6a7b071d127ee89ee7e3f87a8246a7bdaf64736f6c634300081c0033",
  "linkReferences": {},
  "deployedLinkReferences": {}
}