{
  "_format": "hh-sol-artifact-1",
  "contractName": "RentalContract",
  "sourceName": "contracts/RentalAgreement.sol",
  "abi": [
    {
      "anonymous": false,
      "inputs": [
        {
          "indexed": true,
          "internalType": "address",
          "name": "tenant",
          "type": "address"
        },
        {
          "indexed": true,
          "internalType": "address",
          "name": "landlord",
          "type": "address"
        },
        {
          "indexed": false,
          "internalType": "uint256",
          "name": "startDate",
          "type": "uint256"
        },
        {
          "indexed": false,
          "internalType": "uint256",
          "name": "endDate",
          "type": "uint256"
        }
      ],
      "name": "AgreementCreated",
      "type": "event"
    },
    {
      "anonymous": false,
      "inputs": [
        {
          "indexed": false,
          "internalType": "uint256",
          "name": "timestamp",
          "type": "uint256"
        }
      ],
      "name": "AgreementEnded",
      "type": "event"
    },
    {
      "anonymous": false,
      "inputs": [
        {
          "indexed": false,
          "internalType": "uint256",
          "name": "amount",
          "type": "uint256"
        },
        {
          "indexed": false,
          "internalType": "uint256",
          "name": "timestamp",
          "type": "uint256"
        },
        {
          "indexed": false,
          "internalType": "address",
          "name": "payer",
          "type": "address"
        }
      ],
      "name": "PaymentRecorded",
      "type": "event"
    },
    {
      "inputs": [
        {
          "internalType": "address",
          "name": "_tenant",
          "type": "address"
        },
        {
          "internalType": "string",
          "name": "_propertyDetails",
          "type": "string"
        },
        {
          "internalType": "uint256",
          "name": "_startDate",
          "type": "uint256"
        },
        {
          "internalType": "uint256",
          "name": "_endDate",
          "type": "uint256"
        },
        {
          "internalType": "uint256",
          "name": "_rentAmount",
          "type": "uint256"
        },
        {
          "internalType": "uint256",
          "name": "_dueInterval",
          "type": "uint256"
        }
      ],
      "name": "createAgreement",
      "outputs": [],
      "stateMutability": "nonpayable",
      "type": "function"
    },
    {
      "inputs": [],
      "name": "dueInterval",
      "outputs": [
        {
          "internalType": "uint256",
          "name": "",
          "type": "uint256"
        }
      ],
      "stateMutability": "view",
      "type": "function"
    },
    {
      "inputs": [],
      "name": "endAgreement",
      "outputs": [],
      "stateMutability": "nonpayable",
      "type": "function"
    },
    {
      "inputs": [],
      "name": "endDate",
      "outputs": [
        {
          "internalType": "uint256",
          "name": "",
          "type": "uint256"
        }
      ],
      "stateMutability": "view",
      "type": "function"
    },
    {
      "inputs": [],
      "name": "getAllPayments",
      "outputs": [
        {
          "internalType": "uint256[]",
          "name": "amounts",
          "type": "uint256[]"
        },
        {
          "internalType": "uint256[]",
          "name": "timestamps",
          "type": "uint256[]"
        },
        {
          "internalType": "address[]",
          "name": "payers",
          "type": "address[]"
        }
      ],
      "stateMutability": "view",
      "type": "function"
    },
    {
      "inputs": [],
      "name": "getContractAddress",
      "outputs": [
        {
          "internalType": "address",
          "name": "",
          "type": "address"
        }
      ],
      "stateMutability": "view",
      "type": "function"
    },
    {
      "inputs": [
        {
          "internalType": "uint256",
          "name": "index",
          "type": "uint256"
        }
      ],
      "name": "getPaymentByIndex",
      "outputs": [
        {
          "internalType": "uint256",
          "name": "amount",
          "type": "uint256"
        },
        {
          "internalType": "uint256",
          "name": "timestamp",
          "type": "uint256"
        },
        {
          "internalType": "address",
          "name": "payer",
          "type": "address"
        }
      ],
      "stateMutability": "view",
      "type": "function"
    },
    {
      "inputs": [],
      "name": "getPaymentCount",
      "outputs": [
        {
          "internalType": "uint256",
          "name": "",
          "type": "uint256"
        }
      ],
      "stateMutability": "view",
      "type": "function"
    },
    {
      "inputs": [],
      "name": "isActive",
      "outputs": [
        {
          "internalType": "bool",
          "name": "",
          "type": "bool"
        }
      ],
      "stateMutability": "view",
      "type": "function"
    },
    {
      "inputs": [],
      "name": "landlord",
      "outputs": [
        {
          "internalType": "address",
          "name": "",
          "type": "address"
        }
      ],
      "stateMutability": "view",
      "type": "function"
    },
    {
      "inputs": [],
      "name": "lastPaymentTimestamp",
      "outputs": [
        {
          "internalType": "uint256",
          "name": "",
          "type": "uint256"
        }
      ],
      "stateMutability": "view",
      "type": "function"
    },
    {
      "inputs": [
        {
          "internalType": "uint256",
          "name": "",
          "type": "uint256"
        }
      ],
      "name": "payments",
      "outputs": [
        {
          "internalType": "uint256",
          "name": "amount",
          "type": "uint256"
        },
        {
          "internalType": "uint256",
          "name": "timestamp",
          "type": "uint256"
        },
        {
          "internalType": "address",
          "name": "payer",
          "type": "address"
        }
      ],
      "stateMutability": "view",
      "type": "function"
    },
    {
      "inputs": [],
      "name": "propertyDetails",
      "outputs": [
        {
          "internalType": "string",
          "name": "",
          "type": "string"
        }
      ],
      "stateMutability": "view",
      "type": "function"
    },
    {
      "inputs": [],
      "name": "recordPayment",
      "outputs": [],
      "stateMutability": "payable",
      "type": "function"
    },
    {
      "inputs": [],
      "name": "rentAmount",
      "outputs": [
        {
          "internalType": "uint256",
          "name": "",
          "type": "uint256"
        }
      ],
      "stateMutability": "view",
      "type": "function"
    },
    {
      "inputs": [],
      "name": "startDate",
      "outputs": [
        {
          "internalType": "uint256",
          "name": "",
          "type": "uint256"
        }
      ],
      "stateMutability": "view",
      "type": "function"
    },
    {
      "inputs": [],
      "name": "tenant",
      "outputs": [
        {
          "internalType": "address",
          "name": "",
          "type": "address"
        }
      ],
      "stateMutability": "view",
      "type": "function"
    },
    {
      "inputs": [],
      "name": "verifyRentStatus",
      "outputs": [
        {
          "internalType": "string",
          "name": "",
          "type": "string"
        }
      ],
      "stateMutability": "view",
      "type": "function"
    }
  ],
  "bytecode": "0x6080604052348015600f57600080fd5b50611d858061001f6000396000f3fe6080604052600436106101085760003560e01c8063a7bda91a11610095578063dc1997ea11610064578063dc1997ea14610341578063e010a7ed1461036c578063f8defa3c14610397578063f8ef1e13146103c4578063fd26f037146103ef57610108565b8063a7bda91a146102b6578063adf07791146102c0578063af32a03f146102eb578063c24a0f8b1461031657610108565b806332a2c5d0116100dc57806332a2c5d0146101b9578063355fb2b6146101e457806335d958dd1461020d5780635922aeda1461023857806387d817891461027757610108565b80627dc3721461010d5780630b97bc86146101385780631c7d57621461016357806322f3e2d41461018e575b600080fd5b34801561011957600080fd5b50610122610406565b60405161012f919061101e565b60405180910390f35b34801561014457600080fd5b5061014d610494565b60405161015a9190611059565b60405180910390f35b34801561016f57600080fd5b5061017861049a565b6040516101859190611059565b60405180910390f35b34801561019a57600080fd5b506101a36104a0565b6040516101b0919061108f565b60405180910390f35b3480156101c557600080fd5b506101ce6104b3565b6040516101db91906110eb565b60405180910390f35b3480156101f057600080fd5b5061020b600480360381019061020691906112a7565b6104bb565b005b34801561021957600080fd5b5061022261077d565b60405161022f919061101e565b60405180910390f35b34801561024457600080fd5b5061025f600480360381019061025a9190611350565b61082f565b60405161026e9392919061137d565b60405180910390f35b34801561028357600080fd5b5061029e60048036038101906102999190611350565b6108de565b6040516102ad9392919061137d565b60405180910390f35b6102be610938565b005b3480156102cc57600080fd5b506102d5610b70565b6040516102e291906110eb565b60405180910390f35b3480156102f757600080fd5b50610300610b94565b60405161030d9190611059565b60405180910390f35b34801561032257600080fd5b5061032b610ba1565b6040516103389190611059565b60405180910390f35b34801561034d57600080fd5b50610356610ba7565b60405161036391906110eb565b60405180910390f35b34801561037857600080fd5b50610381610bcd565b60405161038e9190611059565b60405180910390f35b3480156103a357600080fd5b506103ac610bd3565b6040516103bb93929190611530565b60405180910390f35b3480156103d057600080fd5b506103d9610dff565b6040516103e69190611059565b60405180910390f35b3480156103fb57600080fd5b50610404610e05565b005b60028054610413906115ab565b80601f016020809104026020016040519081016040528092919081815260200182805461043f906115ab565b801561048c5780601f106104615761010080835404028352916020019161048c565b820191906000526020600020905b81548152906001019060200180831161046f57829003601f168201915b505050505081565b60035481565b60075481565b600860009054906101000a900460ff1681565b600030905090565b600073ffffffffffffffffffffffffffffffffffffffff168673ffffffffffffffffffffffffffffffffffffffff160361052a576040517f08c379a000000000000000000000000000000000000000000000000000000000815260040161052190611628565b60405180910390fd5b82841061056c576040517f08c379a0000000000000000000000000000000000000000000000000000000008152600401610563906116ba565b60405180910390fd5b600082116105af576040517f08c379a00000000000000000000000000000000000000000000000000000000081526004016105a69061174c565b60405180910390fd5b600081116105f2576040517f08c379a00000000000000000000000000000000000000000000000000000000081526004016105e9906117de565b60405180910390fd5b33600160006101000a81548173ffffffffffffffffffffffffffffffffffffffff021916908373ffffffffffffffffffffffffffffffffffffffff160217905550856000806101000a81548173ffffffffffffffffffffffffffffffffffffffff021916908373ffffffffffffffffffffffffffffffffffffffff160217905550846002908161068291906119aa565b5083600381905550826004819055508160058190555062015180816106a79190611aab565b6007819055506001600860006101000a81548160ff021916908315150217905550600160009054906101000a900473ffffffffffffffffffffffffffffffffffffffff1673ffffffffffffffffffffffffffffffffffffffff1660008054906101000a900473ffffffffffffffffffffffffffffffffffffffff1673ffffffffffffffffffffffffffffffffffffffff167f4969d8f058da37f5b596425a39904e9a027ac23d1865d6efd5df5a5e24eef7de60035460045460405161076d929190611aed565b60405180910390a3505050505050565b60606000806006541161079257600354610796565b6006545b90506000600754826107a89190611b16565b9050804210156107f1576040518060400160405280600481526020017f50616964000000000000000000000000000000000000000000000000000000008152509250505061082c565b6040518060400160405280600681526020017f4d69737365640000000000000000000000000000000000000000000000000000815250925050505b90565b6000806000600980549050841061087b576040517f08c379a000000000000000000000000000000000000000000000000000000000815260040161087290611b96565b60405180910390fd5b60006009858154811061089157610890611bb6565b5b90600052602060002090600302019050806000015481600101548260020160009054906101000a900473ffffffffffffffffffffffffffffffffffffffff16935093509350509193909250565b600981815481106108ee57600080fd5b90600052602060002090600302016000915090508060000154908060010154908060020160009054906101000a900473ffffffffffffffffffffffffffffffffffffffff16905083565b60008054906101000a900473ffffffffffffffffffffffffffffffffffffffff1673ffffffffffffffffffffffffffffffffffffffff163373ffffffffffffffffffffffffffffffffffffffff1614806109df5750600160009054906101000a900473ffffffffffffffffffffffffffffffffffffffff1673ffffffffffffffffffffffffffffffffffffffff163373ffffffffffffffffffffffffffffffffffffffff16145b610a1e576040517f08c379a0000000000000000000000000000000000000000000000000000000008152600401610a1590611c57565b60405180910390fd5b600860009054906101000a900460ff16610a6d576040517f08c379a0000000000000000000000000000000000000000000000000000000008152600401610a6490611cc3565b60405180910390fd5b600060405180606001604052803481526020014281526020013373ffffffffffffffffffffffffffffffffffffffff1681525090506009819080600181540180825580915050600190039060005260206000209060030201600090919091909150600082015181600001556020820151816001015560408201518160020160006101000a81548173ffffffffffffffffffffffffffffffffffffffff021916908373ffffffffffffffffffffffffffffffffffffffff1602179055505050426006819055507feb79e24102009f0d7f1eb4227511a0c5c61db03f1560911df6ebc1710f0d82d1344233604051610b659392919061137d565b60405180910390a150565b60008054906101000a900473ffffffffffffffffffffffffffffffffffffffff1681565b6000600980549050905090565b60045481565b600160009054906101000a900473ffffffffffffffffffffffffffffffffffffffff1681565b60065481565b6060806060600060098054905090508067ffffffffffffffff811115610bfc57610bfb611150565b5b604051908082528060200260200182016040528015610c2a5781602001602082028036833780820191505090505b5093508067ffffffffffffffff811115610c4757610c46611150565b5b604051908082528060200260200182016040528015610c755781602001602082028036833780820191505090505b5092508067ffffffffffffffff811115610c9257610c91611150565b5b604051908082528060200260200182016040528015610cc05781602001602082028036833780820191505090505b50915060005b81811015610df85760098181548110610ce257610ce1611bb6565b5b906000526020600020906003020160000154858281518110610d0757610d06611bb6565b5b60200260200101818152505060098181548110610d2757610d26611bb6565b5b906000526020600020906003020160010154848281518110610d4c57610d4b611bb6565b5b60200260200101818152505060098181548110610d6c57610d6b611bb6565b5b906000526020600020906003020160020160009054906101000a900473ffffffffffffffffffffffffffffffffffffffff16838281518110610db157610db0611bb6565b5b602002602001019073ffffffffffffffffffffffffffffffffffffffff16908173ffffffffffffffffffffffffffffffffffffffff16815250508080600101915050610cc6565b5050909192565b60055481565b60008054906101000a900473ffffffffffffffffffffffffffffffffffffffff1673ffffffffffffffffffffffffffffffffffffffff163373ffffffffffffffffffffffffffffffffffffffff161480610eac5750600160009054906101000a900473ffffffffffffffffffffffffffffffffffffffff1673ffffffffffffffffffffffffffffffffffffffff163373ffffffffffffffffffffffffffffffffffffffff16145b610eeb576040517f08c379a0000000000000000000000000000000000000000000000000000000008152600401610ee290611c57565b60405180910390fd5b600860009054906101000a900460ff16610f3a576040517f08c379a0000000000000000000000000000000000000000000000000000000008152600401610f3190611d2f565b60405180910390fd5b6000600860006101000a81548160ff0219169083151502179055507fe68817e6393ef0ffbeea6b9f9250b8834e36523c649ab5c76f543218ca9600b842604051610f849190611059565b60405180910390a1565b600081519050919050565b600082825260208201905092915050565b60005b83811015610fc8578082015181840152602081019050610fad565b60008484015250505050565b6000601f19601f8301169050919050565b6000610ff082610f8e565b610ffa8185610f99565b935061100a818560208601610faa565b61101381610fd4565b840191505092915050565b600060208201905081810360008301526110388184610fe5565b905092915050565b6000819050919050565b61105381611040565b82525050565b600060208201905061106e600083018461104a565b92915050565b60008115159050919050565b61108981611074565b82525050565b60006020820190506110a46000830184611080565b92915050565b600073ffffffffffffffffffffffffffffffffffffffff82169050919050565b60006110d5826110aa565b9050919050565b6110e5816110ca565b82525050565b600060208201905061110060008301846110dc565b92915050565b6000604051905090565b600080fd5b600080fd5b611123816110ca565b811461112e57600080fd5b50565b6000813590506111408161111a565b92915050565b600080fd5b600080fd5b7f4e487b7100000000000000000000000000000000000000000000000000000000600052604160045260246000fd5b61118882610fd4565b810181811067ffffffffffffffff821117156111a7576111a6611150565b5b80604052505050565b60006111ba611106565b90506111c6828261117f565b919050565b600067ffffffffffffffff8211156111e6576111e5611150565b5b6111ef82610fd4565b9050602081019050919050565b82818337600083830152505050565b600061121e611219846111cb565b6111b0565b90508281526020810184848401111561123a5761123961114b565b5b6112458482856111fc565b509392505050565b600082601f83011261126257611261611146565b5b813561127284826020860161120b565b91505092915050565b61128481611040565b811461128f57600080fd5b50565b6000813590506112a18161127b565b92915050565b60008060008060008060c087890312156112c4576112c3611110565b5b60006112d289828a01611131565b965050602087013567ffffffffffffffff8111156112f3576112f2611115565b5b6112ff89828a0161124d565b955050604061131089828a01611292565b945050606061132189828a01611292565b935050608061133289828a01611292565b92505060a061134389828a01611292565b9150509295509295509295565b60006020828403121561136657611365611110565b5b600061137484828501611292565b91505092915050565b6000606082019050611392600083018661104a565b61139f602083018561104a565b6113ac60408301846110dc565b949350505050565b600081519050919050565b600082825260208201905092915050565b6000819050602082019050919050565b6113e981611040565b82525050565b60006113fb83836113e0565b60208301905092915050565b6000602082019050919050565b600061141f826113b4565b61142981856113bf565b9350611434836113d0565b8060005b8381101561146557815161144c88826113ef565b975061145783611407565b925050600181019050611438565b5085935050505092915050565b600081519050919050565b600082825260208201905092915050565b6000819050602082019050919050565b6114a7816110ca565b82525050565b60006114b9838361149e565b60208301905092915050565b6000602082019050919050565b60006114dd82611472565b6114e7818561147d565b93506114f28361148e565b8060005b8381101561152357815161150a88826114ad565b9750611515836114c5565b9250506001810190506114f6565b5085935050505092915050565b6000606082019050818103600083015261154a8186611414565b9050818103602083015261155e8185611414565b9050818103604083015261157281846114d2565b9050949350505050565b7f4e487b7100000000000000000000000000000000000000000000000000000000600052602260045260246000fd5b600060028204905060018216806115c357607f821691505b6020821081036115d6576115d561157c565b5b50919050565b7f496e76616c69642074656e616e74206164647265737300000000000000000000600082015250565b6000611612601683610f99565b915061161d826115dc565b602082019050919050565b6000602082019050818103600083015261164181611605565b9050919050565b7f456e642064617465206d7573742062652061667465722073746172742064617460008201527f6500000000000000000000000000000000000000000000000000000000000000602082015250565b60006116a4602183610f99565b91506116af82611648565b604082019050919050565b600060208201905081810360008301526116d381611697565b9050919050565b7f52656e7420616d6f756e74206d7573742062652067726561746572207468616e60008201527f207a65726f000000000000000000000000000000000000000000000000000000602082015250565b6000611736602583610f99565b9150611741826116da565b604082019050919050565b6000602082019050818103600083015261176581611729565b9050919050565b7f44756520696e74657276616c206d75737420626520677265617465722074686160008201527f6e207a65726f0000000000000000000000000000000000000000000000000000602082015250565b60006117c8602683610f99565b91506117d38261176c565b604082019050919050565b600060208201905081810360008301526117f7816117bb565b9050919050565b60008190508160005260206000209050919050565b60006020601f8301049050919050565b600082821b905092915050565b6000600883026118607fffffffffffffffffffffffffffffffffffffffffffffffffffffffffffffffff82611823565b61186a8683611823565b95508019841693508086168417925050509392505050565b6000819050919050565b60006118a76118a261189d84611040565b611882565b611040565b9050919050565b6000819050919050565b6118c18361188c565b6118d56118cd826118ae565b848454611830565b825550505050565b600090565b6118ea6118dd565b6118f58184846118b8565b505050565b5b818110156119195761190e6000826118e2565b6001810190506118fb565b5050565b601f82111561195e5761192f816117fe565b61193884611813565b81016020851015611947578190505b61195b61195385611813565b8301826118fa565b50505b505050565b600082821c905092915050565b600061198160001984600802611963565b1980831691505092915050565b600061199a8383611970565b9150826002028217905092915050565b6119b382610f8e565b67ffffffffffffffff8111156119cc576119cb611150565b5b6119d682546115ab565b6119e182828561191d565b600060209050601f831160018114611a145760008415611a02578287015190505b611a0c858261198e565b865550611a74565b601f198416611a22866117fe565b60005b82811015611a4a57848901518255600182019150602085019450602081019050611a25565b86831015611a675784890151611a63601f891682611970565b8355505b6001600288020188555050505b505050505050565b7f4e487b7100000000000000000000000000000000000000000000000000000000600052601160045260246000fd5b6000611ab682611040565b9150611ac183611040565b9250828202611acf81611040565b91508282048414831517611ae657611ae5611a7c565b5b5092915050565b6000604082019050611b02600083018561104a565b611b0f602083018461104a565b9392505050565b6000611b2182611040565b9150611b2c83611040565b9250828201905080821115611b4457611b43611a7c565b5b92915050565b7f5061796d656e7420696e646578206f7574206f6620626f756e64730000000000600082015250565b6000611b80601b83610f99565b9150611b8b82611b4a565b602082019050919050565b60006020820190508181036000830152611baf81611b73565b9050919050565b7f4e487b7100000000000000000000000000000000000000000000000000000000600052603260045260246000fd5b7f4f6e6c792074656e616e74206f72206c616e646c6f72642063616e2063616c6c60008201527f2074686973000000000000000000000000000000000000000000000000000000602082015250565b6000611c41602583610f99565b9150611c4c82611be5565b604082019050919050565b60006020820190508181036000830152611c7081611c34565b9050919050565b7f41677265656d656e74206973206e6f7420616374697665000000000000000000600082015250565b6000611cad601783610f99565b9150611cb882611c77565b602082019050919050565b60006020820190508181036000830152611cdc81611ca0565b9050919050565b7f41677265656d656e7420616c726561647920656e646564000000000000000000600082015250565b6000611d19601783610f99565b9150611d2482611ce3565b602082019050919050565b60006020820190508181036000830152611d4881611d0c565b905091905056fea2646970667358221220264983a704e36e2f12f90066a770008cb9749a92939408f6888f582eba0a2f8864736f6c634300081c0033",
  "linkReferences": {},
  "deployedLinkReferences": {}
}